{
  "_format": "hh-sol-artifact-1",
  "contractName": "RentalDistributor",
  "sourceName": "contracts/RentalDistributor.sol",
  "abi": [
    {
      "inputs": [
        {
          "internalType": "address",
          "name": "_pixelEstate",
          "type": "address"
        },
        {
          "internalType": "address",
          "name": "_kycRegistry",
          "type": "address"
        },
        {
          "internalType": "address",
          "name": "_distributionToken",
          "type": "address"
        }
      ],
      "stateMutability": "nonpayable",
      "type": "constructor"
    },
    {
      "inputs": [],
      "name": "AccessControlBadConfirmation",
      "type": "error"
    },
    {
      "inputs": [
        {
          "internalType": "address",
          "name": "account",
          "type": "address"
        },
        {
          "internalType": "bytes32",
          "name": "neededRole",
          "type": "bytes32"
        }
      ],
      "name": "AccessControlUnauthorizedAccount",
      "type": "error"
    },
    {
      "inputs": [],
      "name": "ReentrancyGuardReentrantCall",
      "type": "error"
    },
    {
      "inputs": [
        {
          "internalType": "address",
          "name": "token",
          "type": "address"
        }
      ],
      "name": "SafeERC20FailedOperation",
      "type": "error"
    },
    {
      "anonymous": false,
      "inputs": [
        {
          "indexed": false,
          "internalType": "address",
          "name": "tokenAddress",
          "type": "address"
        }
      ],
      "name": "DistributionTokenUpdated",
      "type": "event"
    },
    {
      "anonymous": false,
      "inputs": [
        {
          "indexed": true,
          "internalType": "uint256",
          "name": "propertyId",
          "type": "uint256"
        },
        {
          "indexed": true,
          "internalType": "address",
          "name": "owner",
          "type": "address"
        },
        {
          "indexed": false,
          "internalType": "uint256",
          "name": "amount",
          "type": "uint256"
        },
        {
          "indexed": false,
          "internalType": "uint256",
          "name": "periodIndex",
          "type": "uint256"
        }
      ],
      "name": "RentalClaimed",
      "type": "event"
    },
    {
      "anonymous": false,
      "inputs": [
        {
          "indexed": true,
          "internalType": "uint256",
          "name": "propertyId",
          "type": "uint256"
        },
        {
          "indexed": false,
          "internalType": "uint256",
          "name": "amount",
          "type": "uint256"
        },
        {
          "indexed": false,
          "internalType": "uint256",
          "name": "periodIndex",
          "type": "uint256"
        }
      ],
      "name": "RentalDeposited",
      "type": "event"
    },
    {
      "anonymous": false,
      "inputs": [
        {
          "indexed": true,
          "internalType": "bytes32",
          "name": "role",
          "type": "bytes32"
        },
        {
          "indexed": true,
          "internalType": "bytes32",
          "name": "previousAdminRole",
          "type": "bytes32"
        },
        {
          "indexed": true,
          "internalType": "bytes32",
          "name": "newAdminRole",
          "type": "bytes32"
        }
      ],
      "name": "RoleAdminChanged",
      "type": "event"
    },
    {
      "anonymous": false,
      "inputs": [
        {
          "indexed": true,
          "internalType": "bytes32",
          "name": "role",
          "type": "bytes32"
        },
        {
          "indexed": true,
          "internalType": "address",
          "name": "account",
          "type": "address"
        },
        {
          "indexed": true,
          "internalType": "address",
          "name": "sender",
          "type": "address"
        }
      ],
      "name": "RoleGranted",
      "type": "event"
    },
    {
      "anonymous": false,
      "inputs": [
        {
          "indexed": true,
          "internalType": "bytes32",
          "name": "role",
          "type": "bytes32"
        },
        {
          "indexed": true,
          "internalType": "address",
          "name": "account",
          "type": "address"
        },
        {
          "indexed": true,
          "internalType": "address",
          "name": "sender",
          "type": "address"
        }
      ],
      "name": "RoleRevoked",
      "type": "event"
    },
    {
      "inputs": [],
      "name": "ADMIN_ROLE",
      "outputs": [
        {
          "internalType": "bytes32",
          "name": "",
          "type": "bytes32"
        }
      ],
      "stateMutability": "view",
      "type": "function"
    },
    {
      "inputs": [],
      "name": "DEFAULT_ADMIN_ROLE",
      "outputs": [
        {
          "internalType": "bytes32",
          "name": "",
          "type": "bytes32"
        }
      ],
      "stateMutability": "view",
      "type": "function"
    },
    {
      "inputs": [
        {
          "internalType": "uint256",
          "name": "propertyId",
          "type": "uint256"
        }
      ],
      "name": "claimAllRental",
      "outputs": [],
      "stateMutability": "nonpayable",
      "type": "function"
    },
    {
      "inputs": [
        {
          "internalType": "uint256",
          "name": "propertyId",
          "type": "uint256"
        },
        {
          "internalType": "uint256",
          "name": "periodIndex",
          "type": "uint256"
        }
      ],
      "name": "claimRental",
      "outputs": [],
      "stateMutability": "nonpayable",
      "type": "function"
    },
    {
      "inputs": [
        {
          "internalType": "uint256",
          "name": "propertyId",
          "type": "uint256"
        },
        {
          "internalType": "uint256",
          "name": "amount",
          "type": "uint256"
        }
      ],
      "name": "depositRental",
      "outputs": [],
      "stateMutability": "nonpayable",
      "type": "function"
    },
    {
      "inputs": [],
      "name": "distributionToken",
      "outputs": [
        {
          "internalType": "contract IERC20",
          "name": "",
          "type": "address"
        }
      ],
      "stateMutability": "view",
      "type": "function"
    },
    {
      "inputs": [
        {
          "internalType": "bytes32",
          "name": "role",
          "type": "bytes32"
        }
      ],
      "name": "getRoleAdmin",
      "outputs": [
        {
          "internalType": "bytes32",
          "name": "",
          "type": "bytes32"
        }
      ],
      "stateMutability": "view",
      "type": "function"
    },
    {
      "inputs": [
        {
          "internalType": "bytes32",
          "name": "role",
          "type": "bytes32"
        },
        {
          "internalType": "address",
          "name": "account",
          "type": "address"
        }
      ],
      "name": "grantRole",
      "outputs": [],
      "stateMutability": "nonpayable",
      "type": "function"
    },
    {
      "inputs": [
        {
          "internalType": "uint256",
          "name": "",
          "type": "uint256"
        },
        {
          "internalType": "uint256",
          "name": "",
          "type": "uint256"
        },
        {
          "internalType": "address",
          "name": "",
          "type": "address"
        }
      ],
      "name": "hasClaimed",
      "outputs": [
        {
          "internalType": "bool",
          "name": "",
          "type": "bool"
        }
      ],
      "stateMutability": "view",
      "type": "function"
    },
    {
      "inputs": [
        {
          "internalType": "bytes32",
          "name": "role",
          "type": "bytes32"
        },
        {
          "internalType": "address",
          "name": "account",
          "type": "address"
        }
      ],
      "name": "hasRole",
      "outputs": [
        {
          "internalType": "bool",
          "name": "",
          "type": "bool"
        }
      ],
      "stateMutability": "view",
      "type": "function"
    },
    {
      "inputs": [],
      "name": "kycRegistry",
      "outputs": [
        {
          "internalType": "contract KYCRegistry",
          "name": "",
          "type": "address"
        }
      ],
      "stateMutability": "view",
      "type": "function"
    },
    {
      "inputs": [
        {
          "internalType": "uint256",
          "name": "propertyId",
          "type": "uint256"
        },
        {
          "internalType": "address",
          "name": "user",
          "type": "address"
        }
      ],
      "name": "pendingRental",
      "outputs": [
        {
          "internalType": "uint256",
          "name": "totalPending",
          "type": "uint256"
        }
      ],
      "stateMutability": "view",
      "type": "function"
    },
    {
      "inputs": [
        {
          "internalType": "uint256",
          "name": "propertyId",
          "type": "uint256"
        },
        {
          "internalType": "uint256",
          "name": "periodIndex",
          "type": "uint256"
        },
        {
          "internalType": "address",
          "name": "user",
          "type": "address"
        }
      ],
      "name": "pendingRentalForPeriod",
      "outputs": [
        {
          "internalType": "uint256",
          "name": "",
          "type": "uint256"
        }
      ],
      "stateMutability": "view",
      "type": "function"
    },
    {
      "inputs": [],
      "name": "pixelEstate",
      "outputs": [
        {
          "internalType": "contract PixelEstate",
          "name": "",
          "type": "address"
        }
      ],
      "stateMutability": "view",
      "type": "function"
    },
    {
      "inputs": [
        {
          "internalType": "bytes32",
          "name": "role",
          "type": "bytes32"
        },
        {
          "internalType": "address",
          "name": "callerConfirmation",
          "type": "address"
        }
      ],
      "name": "renounceRole",
      "outputs": [],
      "stateMutability": "nonpayable",
      "type": "function"
    },
    {
      "inputs": [
        {
          "internalType": "uint256",
          "name": "",
          "type": "uint256"
        },
        {
          "internalType": "uint256",
          "name": "",
          "type": "uint256"
        }
      ],
      "name": "rentalPeriods",
      "outputs": [
        {
          "internalType": "uint256",
          "name": "totalAmount",
          "type": "uint256"
        },
        {
          "internalType": "uint256",
          "name": "timestamp",
          "type": "uint256"
        },
        {
          "internalType": "uint256",
          "name": "distributed",
          "type": "uint256"
        }
      ],
      "stateMutability": "view",
      "type": "function"
    },
    {
      "inputs": [
        {
          "internalType": "bytes32",
          "name": "role",
          "type": "bytes32"
        },
        {
          "internalType": "address",
          "name": "account",
          "type": "address"
        }
      ],
      "name": "revokeRole",
      "outputs": [],
      "stateMutability": "nonpayable",
      "type": "function"
    },
    {
      "inputs": [
        {
          "internalType": "address",
          "name": "_token",
          "type": "address"
        }
      ],
      "name": "setDistributionToken",
      "outputs": [],
      "stateMutability": "nonpayable",
      "type": "function"
    },
    {
      "inputs": [
        {
          "internalType": "bytes4",
          "name": "interfaceId",
          "type": "bytes4"
        }
      ],
      "name": "supportsInterface",
      "outputs": [
        {
          "internalType": "bool",
          "name": "",
          "type": "bool"
        }
      ],
      "stateMutability": "view",
      "type": "function"
    }
  ],
  "bytecode": "0x608060405234801562000010575f80fd5b50604051620023dc380380620023dc83398181016040528101906200003691906200036b565b6001620000586200004c6200016f60201b60201c565b6200019860201b60201c565b5f0181905550620000725f801b33620001a160201b60201c565b50620000a57fa49807205ce4d355092ef5a8a18f56e8913cf4a201fbe287825b095693c2177533620001a160201b60201c565b508260015f6101000a81548173ffffffffffffffffffffffffffffffffffffffff021916908373ffffffffffffffffffffffffffffffffffffffff1602179055508160025f6101000a81548173ffffffffffffffffffffffffffffffffffffffff021916908373ffffffffffffffffffffffffffffffffffffffff1602179055508060035f6101000a81548173ffffffffffffffffffffffffffffffffffffffff021916908373ffffffffffffffffffffffffffffffffffffffff160217905550505050620003c4565b5f7f9b779b17422d0df92223018b32b4d1fa46e071723d6817e2486d003becc55f005f1b905090565b5f819050919050565b5f620001b483836200029c60201b60201c565b620002925760015f808581526020019081526020015f205f015f8473ffffffffffffffffffffffffffffffffffffffff1673ffffffffffffffffffffffffffffffffffffffff1681526020019081526020015f205f6101000a81548160ff0219169083151502179055506200022e620002ff60201b60201c565b73ffffffffffffffffffffffffffffffffffffffff168273ffffffffffffffffffffffffffffffffffffffff16847f2f8788117e7eff1d82e926ec794901d17c78024a50270940304540a733656f0d60405160405180910390a46001905062000296565b5f90505b92915050565b5f805f8481526020019081526020015f205f015f8373ffffffffffffffffffffffffffffffffffffffff1673ffffffffffffffffffffffffffffffffffffffff1681526020019081526020015f205f9054906101000a900460ff16905092915050565b5f33905090565b5f80fd5b5f73ffffffffffffffffffffffffffffffffffffffff82169050919050565b5f62000335826200030a565b9050919050565b620003478162000329565b811462000352575f80fd5b50565b5f8151905062000365816200033c565b92915050565b5f805f6060848603121562000385576200038462000306565b5b5f620003948682870162000355565b9350506020620003a78682870162000355565b9250506040620003ba8682870162000355565b9150509250925092565b61200a80620003d25f395ff3fe608060405234801561000f575f80fd5b506004361061011f575f3560e01c8063621c2e16116100ab5780639d1390621161006f5780639d13906214610329578063a217fddf14610347578063a3aa131c14610365578063d547741f14610381578063e5a6b69c1461039d5761011f565b8063621c2e161461025f57806369547f2d1461028f57806375b238fc146102bf578063895a2987146102dd57806391d14854146102f95761011f565b80632f2ff15d116100f25780632f2ff15d146101cf57806333d52ecd146101eb57806336568abe1461020957806341504bad146102255780634b155b97146102415761011f565b806301ffc9a71461012357806303670e2814610153578063248a9ca31461018357806329dba390146101b3575b5f80fd5b61013d6004803603810190610138919061169d565b6103cf565b60405161014a91906116e2565b60405180910390f35b61016d60048036038101906101689190611788565b610448565b60405161017a91906117e7565b60405180910390f35b61019d60048036038101906101989190611833565b610764565b6040516101aa919061186d565b60405180910390f35b6101cd60048036038101906101c89190611886565b610780565b005b6101e960048036038101906101e491906118b1565b610825565b005b6101f3610847565b604051610200919061194a565b60405180910390f35b610223600480360381019061021e91906118b1565b61086c565b005b61023f600480360381019061023a9190611963565b6108e7565b005b610249610b43565b60405161025691906119c1565b60405180910390f35b610279600480360381019061027491906119da565b610b68565b60405161028691906117e7565b60405180910390f35b6102a960048036038101906102a49190611788565b610bb8565b6040516102b691906116e2565b60405180910390f35b6102c7610bed565b6040516102d4919061186d565b60405180910390f35b6102f760048036038101906102f29190611963565b610c11565b005b610313600480360381019061030e91906118b1565b610fa4565b60405161032091906116e2565b60405180910390f35b610331611007565b60405161033e9190611a38565b60405180910390f35b61034f61102c565b60405161035c919061186d565b60405180910390f35b61037f600480360381019061037a9190611a51565b611032565b005b61039b600480360381019061039691906118b1565b6110f5565b005b6103b760048036038101906103b29190611963565b611117565b6040516103c693929190611a7c565b60405180910390f35b5f7f7965db0b000000000000000000000000000000000000000000000000000000007bffffffffffffffffffffffffffffffffffffffffffffffffffffffff1916827bffffffffffffffffffffffffffffffffffffffffffffffffffffffff19161480610441575061044082611157565b5b9050919050565b5f60055f8581526020019081526020015f205f8481526020019081526020015f205f8373ffffffffffffffffffffffffffffffffffffffff1673ffffffffffffffffffffffffffffffffffffffff1681526020019081526020015f205f9054906101000a900460ff16156104be575f905061075d565b5f60015f9054906101000a900473ffffffffffffffffffffffffffffffffffffffff1673ffffffffffffffffffffffffffffffffffffffff16637f2345b8866040518263ffffffff1660e01b815260040161051991906117e7565b602060405180830381865afa158015610534573d5f803e3d5ffd5b505050506040513d601f19601f820116820180604052508101906105589190611ac5565b90505f810361056a575f91505061075d565b5f805b828110156106d1575f60015f9054906101000a900473ffffffffffffffffffffffffffffffffffffffff1673ffffffffffffffffffffffffffffffffffffffff16633112de9a89846040518363ffffffff1660e01b81526004016105d2929190611af0565b602060405180830381865afa1580156105ed573d5f803e3d5ffd5b505050506040513d601f19601f820116820180604052508101906106119190611ac5565b90505f60015f9054906101000a900473ffffffffffffffffffffffffffffffffffffffff1673ffffffffffffffffffffffffffffffffffffffff1662fdd58e88846040518363ffffffff1660e01b815260040161066f929190611b26565b602060405180830381865afa15801561068a573d5f803e3d5ffd5b505050506040513d601f19601f820116820180604052508101906106ae9190611ac5565b11156106c35782806106bf90611b7a565b9350505b50808060010191505061056d565b505f81036106e3575f9250505061075d565b5f60045f8881526020019081526020015f20868154811061070757610706611bc1565b5b905f5260205f2090600302016040518060600160405290815f820154815260200160018201548152602001600282015481525050905082815f01518361074d9190611bee565b6107579190611c5c565b93505050505b9392505050565b5f805f8381526020019081526020015f20600101549050919050565b7fa49807205ce4d355092ef5a8a18f56e8913cf4a201fbe287825b095693c217756107aa816111c0565b8160035f6101000a81548173ffffffffffffffffffffffffffffffffffffffff021916908373ffffffffffffffffffffffffffffffffffffffff1602179055507fd73f4b3f304ec9e92a57fdf08bba5da9c9932a59f9cd701dd67cdf147c890213826040516108199190611c8c565b60405180910390a15050565b61082e82610764565b610837816111c0565b61084183836111d4565b50505050565b60015f9054906101000a900473ffffffffffffffffffffffffffffffffffffffff1681565b6108746112bd565b73ffffffffffffffffffffffffffffffffffffffff168173ffffffffffffffffffffffffffffffffffffffff16146108d8576040517f6697b23200000000000000000000000000000000000000000000000000000000815260040160405180910390fd5b6108e282826112c4565b505050565b7fa49807205ce4d355092ef5a8a18f56e8913cf4a201fbe287825b095693c21775610911816111c0565b5f8211610953576040517f08c379a000000000000000000000000000000000000000000000000000000000815260040161094a90611cff565b60405180910390fd5b5f60015f9054906101000a900473ffffffffffffffffffffffffffffffffffffffff1673ffffffffffffffffffffffffffffffffffffffff16637f2345b8856040518263ffffffff1660e01b81526004016109ae91906117e7565b602060405180830381865afa1580156109c9573d5f803e3d5ffd5b505050506040513d601f19601f820116820180604052508101906109ed9190611ac5565b11610a2d576040517f08c379a0000000000000000000000000000000000000000000000000000000008152600401610a2490611d67565b60405180910390fd5b610a7b33308460035f9054906101000a900473ffffffffffffffffffffffffffffffffffffffff1673ffffffffffffffffffffffffffffffffffffffff166113ad909392919063ffffffff16565b5f60045f8581526020019081526020015f2080549050905060045f8581526020019081526020015f2060405180606001604052808581526020014281526020015f815250908060018154018082558091505060019003905f5260205f2090600302015f909190919091505f820151815f015560208201518160010155604082015181600201555050837f940a369b53b46a7b4be127f8c147aa4da57f3cb97a0172b7da61e7cea8a07b028483604051610b35929190611af0565b60405180910390a250505050565b60025f9054906101000a900473ffffffffffffffffffffffffffffffffffffffff1681565b5f8060045f8581526020019081526020015f208054905090505f5b81811015610bb057610b96858286610448565b83610ba19190611d85565b92508080600101915050610b83565b505092915050565b6005602052825f5260405f20602052815f5260405f20602052805f5260405f205f92509250509054906101000a900460ff1681565b7fa49807205ce4d355092ef5a8a18f56e8913cf4a201fbe287825b095693c2177581565b610c19611402565b60025f9054906101000a900473ffffffffffffffffffffffffffffffffffffffff1673ffffffffffffffffffffffffffffffffffffffff1663e77db232336040518263ffffffff1660e01b8152600401610c739190611c8c565b602060405180830381865afa158015610c8e573d5f803e3d5ffd5b505050506040513d601f19601f82011682018060405250810190610cb29190611de2565b610cf1576040517f08c379a0000000000000000000000000000000000000000000000000000000008152600401610ce890611e57565b60405180910390fd5b60045f8381526020019081526020015f20805490508110610d47576040517f08c379a0000000000000000000000000000000000000000000000000000000008152600401610d3e90611ebf565b60405180910390fd5b60055f8381526020019081526020015f205f8281526020019081526020015f205f3373ffffffffffffffffffffffffffffffffffffffff1673ffffffffffffffffffffffffffffffffffffffff1681526020019081526020015f205f9054906101000a900460ff1615610def576040517f08c379a0000000000000000000000000000000000000000000000000000000008152600401610de690611f27565b60405180910390fd5b5f610dfb838333610448565b90505f8111610e3f576040517f08c379a0000000000000000000000000000000000000000000000000000000008152600401610e3690611f8f565b60405180910390fd5b600160055f8581526020019081526020015f205f8481526020019081526020015f205f3373ffffffffffffffffffffffffffffffffffffffff1673ffffffffffffffffffffffffffffffffffffffff1681526020019081526020015f205f6101000a81548160ff0219169083151502179055508060045f8581526020019081526020015f208381548110610ed657610ed5611bc1565b5b905f5260205f2090600302016002015f828254610ef39190611d85565b92505081905550610f46338260035f9054906101000a900473ffffffffffffffffffffffffffffffffffffffff1673ffffffffffffffffffffffffffffffffffffffff166114249092919063ffffffff16565b3373ffffffffffffffffffffffffffffffffffffffff16837f2a4c515fa7fd625ff19475de73b3eed4fbac66c261eb50651dee14dc3d398e818385604051610f8f929190611af0565b60405180910390a350610fa0611477565b5050565b5f805f8481526020019081526020015f205f015f8373ffffffffffffffffffffffffffffffffffffffff1673ffffffffffffffffffffffffffffffffffffffff1681526020019081526020015f205f9054906101000a900460ff16905092915050565b60035f9054906101000a900473ffffffffffffffffffffffffffffffffffffffff1681565b5f801b81565b5f60045f8381526020019081526020015f208054905090505f5b818110156110f05760055f8481526020019081526020015f205f8281526020019081526020015f205f3373ffffffffffffffffffffffffffffffffffffffff1673ffffffffffffffffffffffffffffffffffffffff1681526020019081526020015f205f9054906101000a900460ff166110e3575f6110cc848333610448565b90505f8111156110e1576110e08483610c11565b5b505b808060010191505061104c565b505050565b6110fe82610764565b611107816111c0565b61111183836112c4565b50505050565b6004602052815f5260405f208181548110611130575f80fd5b905f5260205f2090600302015f9150915050805f0154908060010154908060020154905083565b5f7f01ffc9a7000000000000000000000000000000000000000000000000000000007bffffffffffffffffffffffffffffffffffffffffffffffffffffffff1916827bffffffffffffffffffffffffffffffffffffffffffffffffffffffff1916149050919050565b6111d1816111cc6112bd565b611491565b50565b5f6111df8383610fa4565b6112b35760015f808581526020019081526020015f205f015f8473ffffffffffffffffffffffffffffffffffffffff1673ffffffffffffffffffffffffffffffffffffffff1681526020019081526020015f205f6101000a81548160ff0219169083151502179055506112506112bd565b73ffffffffffffffffffffffffffffffffffffffff168273ffffffffffffffffffffffffffffffffffffffff16847f2f8788117e7eff1d82e926ec794901d17c78024a50270940304540a733656f0d60405160405180910390a4600190506112b7565b5f90505b92915050565b5f33905090565b5f6112cf8383610fa4565b156113a3575f805f8581526020019081526020015f205f015f8473ffffffffffffffffffffffffffffffffffffffff1673ffffffffffffffffffffffffffffffffffffffff1681526020019081526020015f205f6101000a81548160ff0219169083151502179055506113406112bd565b73ffffffffffffffffffffffffffffffffffffffff168273ffffffffffffffffffffffffffffffffffffffff16847ff6391f5c32d9c69d2a47ea670b442974b53935d1edc7fd64eb21e047a839171b60405160405180910390a4600190506113a7565b5f90505b92915050565b6113bb8484848460016114e2565b6113fc57836040517f5274afe70000000000000000000000000000000000000000000000000000000081526004016113f39190611c8c565b60405180910390fd5b50505050565b61140a611553565b600261141c611417611594565b6115bd565b5f0181905550565b61143183838360016115c6565b61147257826040517f5274afe70000000000000000000000000000000000000000000000000000000081526004016114699190611c8c565b60405180910390fd5b505050565b6001611489611484611594565b6115bd565b5f0181905550565b61149b8282610fa4565b6114de5780826040517fe2517d3f0000000000000000000000000000000000000000000000000000000081526004016114d5929190611fad565b60405180910390fd5b5050565b5f806323b872dd60e01b9050604051815f525f1960601c87166004525f1960601c86166024528460445260205f60645f808c5af1925060015f51148316611540578383151615611534573d5f823e3d81fd5b5f883b113d1516831692505b806040525f606052505095945050505050565b61155b611628565b15611592576040517f3ee5aeb500000000000000000000000000000000000000000000000000000000815260040160405180910390fd5b565b5f7f9b779b17422d0df92223018b32b4d1fa46e071723d6817e2486d003becc55f005f1b905090565b5f819050919050565b5f8063a9059cbb60e01b9050604051815f525f1960601c86166004528460245260205f60445f808b5af1925060015f5114831661161a57838315161561160e573d5f823e3d81fd5b5f873b113d1516831692505b806040525050949350505050565b5f600261163b611636611594565b6115bd565b5f015414905090565b5f80fd5b5f7fffffffff0000000000000000000000000000000000000000000000000000000082169050919050565b61167c81611648565b8114611686575f80fd5b50565b5f8135905061169781611673565b92915050565b5f602082840312156116b2576116b1611644565b5b5f6116bf84828501611689565b91505092915050565b5f8115159050919050565b6116dc816116c8565b82525050565b5f6020820190506116f55f8301846116d3565b92915050565b5f819050919050565b61170d816116fb565b8114611717575f80fd5b50565b5f8135905061172881611704565b92915050565b5f73ffffffffffffffffffffffffffffffffffffffff82169050919050565b5f6117578261172e565b9050919050565b6117678161174d565b8114611771575f80fd5b50565b5f813590506117828161175e565b92915050565b5f805f6060848603121561179f5761179e611644565b5b5f6117ac8682870161171a565b93505060206117bd8682870161171a565b92505060406117ce86828701611774565b9150509250925092565b6117e1816116fb565b82525050565b5f6020820190506117fa5f8301846117d8565b92915050565b5f819050919050565b61181281611800565b811461181c575f80fd5b50565b5f8135905061182d81611809565b92915050565b5f6020828403121561184857611847611644565b5b5f6118558482850161181f565b91505092915050565b61186781611800565b82525050565b5f6020820190506118805f83018461185e565b92915050565b5f6020828403121561189b5761189a611644565b5b5f6118a884828501611774565b91505092915050565b5f80604083850312156118c7576118c6611644565b5b5f6118d48582860161181f565b92505060206118e585828601611774565b9150509250929050565b5f819050919050565b5f61191261190d6119088461172e565b6118ef565b61172e565b9050919050565b5f611923826118f8565b9050919050565b5f61193482611919565b9050919050565b6119448161192a565b82525050565b5f60208201905061195d5f83018461193b565b92915050565b5f806040838503121561197957611978611644565b5b5f6119868582860161171a565b92505060206119978582860161171a565b9150509250929050565b5f6119ab82611919565b9050919050565b6119bb816119a1565b82525050565b5f6020820190506119d45f8301846119b2565b92915050565b5f80604083850312156119f0576119ef611644565b5b5f6119fd8582860161171a565b9250506020611a0e85828601611774565b9150509250929050565b5f611a2282611919565b9050919050565b611a3281611a18565b82525050565b5f602082019050611a4b5f830184611a29565b92915050565b5f60208284031215611a6657611a65611644565b5b5f611a738482850161171a565b91505092915050565b5f606082019050611a8f5f8301866117d8565b611a9c60208301856117d8565b611aa960408301846117d8565b949350505050565b5f81519050611abf81611704565b92915050565b5f60208284031215611ada57611ad9611644565b5b5f611ae784828501611ab1565b91505092915050565b5f604082019050611b035f8301856117d8565b611b1060208301846117d8565b9392505050565b611b208161174d565b82525050565b5f604082019050611b395f830185611b17565b611b4660208301846117d8565b9392505050565b7f4e487b71000000000000000000000000000000000000000000000000000000005f52601160045260245ffd5b5f611b84826116fb565b91507fffffffffffffffffffffffffffffffffffffffffffffffffffffffffffffffff8203611bb657611bb5611b4d565b5b600182019050919050565b7f4e487b71000000000000000000000000000000000000000000000000000000005f52603260045260245ffd5b5f611bf8826116fb565b9150611c03836116fb565b9250828202611c11816116fb565b91508282048414831517611c2857611c27611b4d565b5b5092915050565b7f4e487b71000000000000000000000000000000000000000000000000000000005f52601260045260245ffd5b5f611c66826116fb565b9150611c71836116fb565b925082611c8157611c80611c2f565b5b828204905092915050565b5f602082019050611c9f5f830184611b17565b92915050565b5f82825260208201905092915050565b7f416d6f756e74206d757374206265203e203000000000000000000000000000005f82015250565b5f611ce9601283611ca5565b9150611cf482611cb5565b602082019050919050565b5f6020820190508181035f830152611d1681611cdd565b9050919050565b7f50726f706572747920646f6573206e6f742065786973740000000000000000005f82015250565b5f611d51601783611ca5565b9150611d5c82611d1d565b602082019050919050565b5f6020820190508181035f830152611d7e81611d45565b9050919050565b5f611d8f826116fb565b9150611d9a836116fb565b9250828201905080821115611db257611db1611b4d565b5b92915050565b611dc1816116c8565b8114611dcb575f80fd5b50565b5f81519050611ddc81611db8565b92915050565b5f60208284031215611df757611df6611644565b5b5f611e0484828501611dce565b91505092915050565b7f4b5943206e6f7420617070726f766564000000000000000000000000000000005f82015250565b5f611e41601083611ca5565b9150611e4c82611e0d565b602082019050919050565b5f6020820190508181035f830152611e6e81611e35565b9050919050565b7f496e76616c696420706572696f640000000000000000000000000000000000005f82015250565b5f611ea9600e83611ca5565b9150611eb482611e75565b602082019050919050565b5f6020820190508181035f830152611ed681611e9d565b9050919050565b7f416c726561647920636c61696d656400000000000000000000000000000000005f82015250565b5f611f11600f83611ca5565b9150611f1c82611edd565b602082019050919050565b5f6020820190508181035f830152611f3e81611f05565b9050919050565b7f4e6f7468696e6720746f20636c61696d000000000000000000000000000000005f82015250565b5f611f79601083611ca5565b9150611f8482611f45565b602082019050919050565b5f6020820190508181035f830152611fa681611f6d565b9050919050565b5f604082019050611fc05f830185611b17565b611fcd602083018461185e565b939250505056fea26469706673582212209f8e631ff77d5e8d6d61ff2517fb3c5782f2ff2ead4de45267750310bdf1061564736f6c63430008180033",
  "linkReferences": {},
  "deployedLinkReferences": {}
}