{
  "_format": "hh-sol-artifact-1",
  "contractName": "Marketplace",
  "sourceName": "contracts/Marketplace.sol",
  "abi": [
    {
      "inputs": [
        {
          "internalType": "address",
          "name": "_pixelEstate",
          "type": "address"
        },
        {
          "internalType": "address",
          "name": "_kycRegistry",
          "type": "address"
        },
        {
          "internalType": "address",
          "name": "_paymentToken",
          "type": "address"
        },
        {
          "internalType": "address",
          "name": "_treasuryAddress",
          "type": "address"
        }
      ],
      "stateMutability": "nonpayable",
      "type": "constructor"
    },
    {
      "inputs": [],
      "name": "AccessControlBadConfirmation",
      "type": "error"
    },
    {
      "inputs": [
        {
          "internalType": "address",
          "name": "account",
          "type": "address"
        },
        {
          "internalType": "bytes32",
          "name": "neededRole",
          "type": "bytes32"
        }
      ],
      "name": "AccessControlUnauthorizedAccount",
      "type": "error"
    },
    {
      "inputs": [],
      "name": "ReentrancyGuardReentrantCall",
      "type": "error"
    },
    {
      "inputs": [
        {
          "internalType": "address",
          "name": "token",
          "type": "address"
        }
      ],
      "name": "SafeERC20FailedOperation",
      "type": "error"
    },
    {
      "anonymous": false,
      "inputs": [
        {
          "indexed": true,
          "internalType": "uint256",
          "name": "listingId",
          "type": "uint256"
        }
      ],
      "name": "Cancelled",
      "type": "event"
    },
    {
      "anonymous": false,
      "inputs": [
        {
          "indexed": true,
          "internalType": "uint256",
          "name": "listingId",
          "type": "uint256"
        },
        {
          "indexed": true,
          "internalType": "address",
          "name": "seller",
          "type": "address"
        },
        {
          "indexed": true,
          "internalType": "uint256",
          "name": "propertyId",
          "type": "uint256"
        },
        {
          "indexed": false,
          "internalType": "uint256",
          "name": "pixelCount",
          "type": "uint256"
        },
        {
          "indexed": false,
          "internalType": "uint256",
          "name": "pricePerPixel",
          "type": "uint256"
        }
      ],
      "name": "Listed",
      "type": "event"
    },
    {
      "anonymous": false,
      "inputs": [
        {
          "indexed": false,
          "internalType": "uint256",
          "name": "newFeeBps",
          "type": "uint256"
        }
      ],
      "name": "PlatformFeeUpdated",
      "type": "event"
    },
    {
      "anonymous": false,
      "inputs": [
        {
          "indexed": true,
          "internalType": "bytes32",
          "name": "role",
          "type": "bytes32"
        },
        {
          "indexed": true,
          "internalType": "bytes32",
          "name": "previousAdminRole",
          "type": "bytes32"
        },
        {
          "indexed": true,
          "internalType": "bytes32",
          "name": "newAdminRole",
          "type": "bytes32"
        }
      ],
      "name": "RoleAdminChanged",
      "type": "event"
    },
    {
      "anonymous": false,
      "inputs": [
        {
          "indexed": true,
          "internalType": "bytes32",
          "name": "role",
          "type": "bytes32"
        },
        {
          "indexed": true,
          "internalType": "address",
          "name": "account",
          "type": "address"
        },
        {
          "indexed": true,
          "internalType": "address",
          "name": "sender",
          "type": "address"
        }
      ],
      "name": "RoleGranted",
      "type": "event"
    },
    {
      "anonymous": false,
      "inputs": [
        {
          "indexed": true,
          "internalType": "bytes32",
          "name": "role",
          "type": "bytes32"
        },
        {
          "indexed": true,
          "internalType": "address",
          "name": "account",
          "type": "address"
        },
        {
          "indexed": true,
          "internalType": "address",
          "name": "sender",
          "type": "address"
        }
      ],
      "name": "RoleRevoked",
      "type": "event"
    },
    {
      "anonymous": false,
      "inputs": [
        {
          "indexed": true,
          "internalType": "uint256",
          "name": "listingId",
          "type": "uint256"
        },
        {
          "indexed": true,
          "internalType": "address",
          "name": "buyer",
          "type": "address"
        },
        {
          "indexed": false,
          "internalType": "uint256",
          "name": "pixelCount",
          "type": "uint256"
        },
        {
          "indexed": false,
          "internalType": "uint256",
          "name": "totalPrice",
          "type": "uint256"
        }
      ],
      "name": "Sold",
      "type": "event"
    },
    {
      "anonymous": false,
      "inputs": [
        {
          "indexed": false,
          "internalType": "address",
          "name": "newTreasury",
          "type": "address"
        }
      ],
      "name": "TreasuryUpdated",
      "type": "event"
    },
    {
      "inputs": [],
      "name": "ADMIN_ROLE",
      "outputs": [
        {
          "internalType": "bytes32",
          "name": "",
          "type": "bytes32"
        }
      ],
      "stateMutability": "view",
      "type": "function"
    },
    {
      "inputs": [],
      "name": "DEFAULT_ADMIN_ROLE",
      "outputs": [
        {
          "internalType": "bytes32",
          "name": "",
          "type": "bytes32"
        }
      ],
      "stateMutability": "view",
      "type": "function"
    },
    {
      "inputs": [
        {
          "internalType": "uint256",
          "name": "listingId",
          "type": "uint256"
        },
        {
          "internalType": "uint256",
          "name": "pixelCount",
          "type": "uint256"
        }
      ],
      "name": "buyListing",
      "outputs": [],
      "stateMutability": "nonpayable",
      "type": "function"
    },
    {
      "inputs": [
        {
          "internalType": "uint256",
          "name": "listingId",
          "type": "uint256"
        }
      ],
      "name": "cancelListing",
      "outputs": [],
      "stateMutability": "nonpayable",
      "type": "function"
    },
    {
      "inputs": [
        {
          "internalType": "bytes32",
          "name": "role",
          "type": "bytes32"
        }
      ],
      "name": "getRoleAdmin",
      "outputs": [
        {
          "internalType": "bytes32",
          "name": "",
          "type": "bytes32"
        }
      ],
      "stateMutability": "view",
      "type": "function"
    },
    {
      "inputs": [
        {
          "internalType": "bytes32",
          "name": "role",
          "type": "bytes32"
        },
        {
          "internalType": "address",
          "name": "account",
          "type": "address"
        }
      ],
      "name": "grantRole",
      "outputs": [],
      "stateMutability": "nonpayable",
      "type": "function"
    },
    {
      "inputs": [
        {
          "internalType": "bytes32",
          "name": "role",
          "type": "bytes32"
        },
        {
          "internalType": "address",
          "name": "account",
          "type": "address"
        }
      ],
      "name": "hasRole",
      "outputs": [
        {
          "internalType": "bool",
          "name": "",
          "type": "bool"
        }
      ],
      "stateMutability": "view",
      "type": "function"
    },
    {
      "inputs": [],
      "name": "kycRegistry",
      "outputs": [
        {
          "internalType": "contract KYCRegistry",
          "name": "",
          "type": "address"
        }
      ],
      "stateMutability": "view",
      "type": "function"
    },
    {
      "inputs": [
        {
          "internalType": "uint256",
          "name": "propertyId",
          "type": "uint256"
        },
        {
          "internalType": "uint256[]",
          "name": "pixelIndexes",
          "type": "uint256[]"
        },
        {
          "internalType": "uint256",
          "name": "pricePerPixel",
          "type": "uint256"
        }
      ],
      "name": "listPixels",
      "outputs": [],
      "stateMutability": "nonpayable",
      "type": "function"
    },
    {
      "inputs": [
        {
          "internalType": "uint256",
          "name": "",
          "type": "uint256"
        }
      ],
      "name": "listings",
      "outputs": [
        {
          "internalType": "uint256",
          "name": "listingId",
          "type": "uint256"
        },
        {
          "internalType": "address",
          "name": "seller",
          "type": "address"
        },
        {
          "internalType": "uint256",
          "name": "propertyId",
          "type": "uint256"
        },
        {
          "internalType": "uint256",
          "name": "pricePerPixel",
          "type": "uint256"
        },
        {
          "internalType": "uint256",
          "name": "remaining",
          "type": "uint256"
        },
        {
          "internalType": "bool",
          "name": "active",
          "type": "bool"
        }
      ],
      "stateMutability": "view",
      "type": "function"
    },
    {
      "inputs": [],
      "name": "nextListingId",
      "outputs": [
        {
          "internalType": "uint256",
          "name": "",
          "type": "uint256"
        }
      ],
      "stateMutability": "view",
      "type": "function"
    },
    {
      "inputs": [
        {
          "internalType": "address",
          "name": "",
          "type": "address"
        },
        {
          "internalType": "address",
          "name": "",
          "type": "address"
        },
        {
          "internalType": "uint256[]",
          "name": "",
          "type": "uint256[]"
        },
        {
          "internalType": "uint256[]",
          "name": "",
          "type": "uint256[]"
        },
        {
          "internalType": "bytes",
          "name": "",
          "type": "bytes"
        }
      ],
      "name": "onERC1155BatchReceived",
      "outputs": [
        {
          "internalType": "bytes4",
          "name": "",
          "type": "bytes4"
        }
      ],
      "stateMutability": "nonpayable",
      "type": "function"
    },
    {
      "inputs": [
        {
          "internalType": "address",
          "name": "",
          "type": "address"
        },
        {
          "internalType": "address",
          "name": "",
          "type": "address"
        },
        {
          "internalType": "uint256",
          "name": "",
          "type": "uint256"
        },
        {
          "internalType": "uint256",
          "name": "",
          "type": "uint256"
        },
        {
          "internalType": "bytes",
          "name": "",
          "type": "bytes"
        }
      ],
      "name": "onERC1155Received",
      "outputs": [
        {
          "internalType": "bytes4",
          "name": "",
          "type": "bytes4"
        }
      ],
      "stateMutability": "nonpayable",
      "type": "function"
    },
    {
      "inputs": [],
      "name": "paymentToken",
      "outputs": [
        {
          "internalType": "contract IERC20",
          "name": "",
          "type": "address"
        }
      ],
      "stateMutability": "view",
      "type": "function"
    },
    {
      "inputs": [],
      "name": "pixelEstate",
      "outputs": [
        {
          "internalType": "contract PixelEstate",
          "name": "",
          "type": "address"
        }
      ],
      "stateMutability": "view",
      "type": "function"
    },
    {
      "inputs": [],
      "name": "platformFeeBps",
      "outputs": [
        {
          "internalType": "uint256",
          "name": "",
          "type": "uint256"
        }
      ],
      "stateMutability": "view",
      "type": "function"
    },
    {
      "inputs": [
        {
          "internalType": "bytes32",
          "name": "role",
          "type": "bytes32"
        },
        {
          "internalType": "address",
          "name": "callerConfirmation",
          "type": "address"
        }
      ],
      "name": "renounceRole",
      "outputs": [],
      "stateMutability": "nonpayable",
      "type": "function"
    },
    {
      "inputs": [
        {
          "internalType": "bytes32",
          "name": "role",
          "type": "bytes32"
        },
        {
          "internalType": "address",
          "name": "account",
          "type": "address"
        }
      ],
      "name": "revokeRole",
      "outputs": [],
      "stateMutability": "nonpayable",
      "type": "function"
    },
    {
      "inputs": [
        {
          "internalType": "uint256",
          "name": "_feeBps",
          "type": "uint256"
        }
      ],
      "name": "setPlatformFee",
      "outputs": [],
      "stateMutability": "nonpayable",
      "type": "function"
    },
    {
      "inputs": [
        {
          "internalType": "address",
          "name": "_treasury",
          "type": "address"
        }
      ],
      "name": "setTreasury",
      "outputs": [],
      "stateMutability": "nonpayable",
      "type": "function"
    },
    {
      "inputs": [
        {
          "internalType": "bytes4",
          "name": "interfaceId",
          "type": "bytes4"
        }
      ],
      "name": "supportsInterface",
      "outputs": [
        {
          "internalType": "bool",
          "name": "",
          "type": "bool"
        }
      ],
      "stateMutability": "view",
      "type": "function"
    },
    {
      "inputs": [],
      "name": "treasuryAddress",
      "outputs": [
        {
          "internalType": "address",
          "name": "",
          "type": "address"
        }
      ],
      "stateMutability": "view",
      "type": "function"
    }
  ],
  "bytecode": "0x608060405260c860055534801562000015575f80fd5b50604051620032be380380620032be83398181016040528101906200003b9190620003b1565b60016200005d62000051620001b560201b60201c565b620001de60201b60201c565b5f0181905550620000775f801b33620001e760201b60201c565b50620000aa7fa49807205ce4d355092ef5a8a18f56e8913cf4a201fbe287825b095693c2177533620001e760201b60201c565b508360015f6101000a81548173ffffffffffffffffffffffffffffffffffffffff021916908373ffffffffffffffffffffffffffffffffffffffff1602179055508260025f6101000a81548173ffffffffffffffffffffffffffffffffffffffff021916908373ffffffffffffffffffffffffffffffffffffffff1602179055508160035f6101000a81548173ffffffffffffffffffffffffffffffffffffffff021916908373ffffffffffffffffffffffffffffffffffffffff1602179055508060045f6101000a81548173ffffffffffffffffffffffffffffffffffffffff021916908373ffffffffffffffffffffffffffffffffffffffff1602179055505050505062000420565b5f7f9b779b17422d0df92223018b32b4d1fa46e071723d6817e2486d003becc55f005f1b905090565b5f819050919050565b5f620001fa8383620002e260201b60201c565b620002d85760015f808581526020019081526020015f205f015f8473ffffffffffffffffffffffffffffffffffffffff1673ffffffffffffffffffffffffffffffffffffffff1681526020019081526020015f205f6101000a81548160ff021916908315150217905550620002746200034560201b60201c565b73ffffffffffffffffffffffffffffffffffffffff168273ffffffffffffffffffffffffffffffffffffffff16847f2f8788117e7eff1d82e926ec794901d17c78024a50270940304540a733656f0d60405160405180910390a460019050620002dc565b5f90505b92915050565b5f805f8481526020019081526020015f205f015f8373ffffffffffffffffffffffffffffffffffffffff1673ffffffffffffffffffffffffffffffffffffffff1681526020019081526020015f205f9054906101000a900460ff16905092915050565b5f33905090565b5f80fd5b5f73ffffffffffffffffffffffffffffffffffffffff82169050919050565b5f6200037b8262000350565b9050919050565b6200038d816200036f565b811462000398575f80fd5b50565b5f81519050620003ab8162000382565b92915050565b5f805f8060808587031215620003cc57620003cb6200034c565b5b5f620003db878288016200039b565b9450506020620003ee878288016200039b565b935050604062000401878288016200039b565b925050606062000414878288016200039b565b91505092959194509250565b612e90806200042e5f395ff3fe608060405234801561000f575f80fd5b5060043610610140575f3560e01c806375b238fc116100b6578063bc197c811161007a578063bc197c811461034e578063c5f956af1461037e578063d547741f1461039c578063de74e57b146103b8578063f0f44260146103ed578063f23a6e611461040957610140565b806375b238fc146102a857806391d14854146102c65780639452e12d146102f6578063a217fddf14610312578063aaccf1ec1461033057610140565b80633013ce29116101085780633013ce29146101fa578063305a67a81461021857806333d52ecd1461023457806336568abe146102525780634b155b971461026e5780636d0ba1d31461028c57610140565b806301ffc9a71461014457806312e8e2c31461017457806322dcd13e14610190578063248a9ca3146101ae5780632f2ff15d146101de575b5f80fd5b61015e60048036038101906101599190611f19565b610439565b60405161016b9190611f5e565b60405180910390f35b61018e60048036038101906101899190611faa565b61044a565b005b6101986104fb565b6040516101a59190611fe4565b60405180910390f35b6101c860048036038101906101c39190612030565b610501565b6040516101d5919061206a565b60405180910390f35b6101f860048036038101906101f391906120dd565b61051d565b005b61020261053f565b60405161020f9190612176565b60405180910390f35b610232600480360381019061022d9190611faa565b610564565b005b61023c610a18565b60405161024991906121af565b60405180910390f35b61026c600480360381019061026791906120dd565b610a3d565b005b610276610ab8565b60405161028391906121e8565b60405180910390f35b6102a660048036038101906102a19190612201565b610add565b005b6102b0611140565b6040516102bd919061206a565b60405180910390f35b6102e060048036038101906102db91906120dd565b611164565b6040516102ed9190611f5e565b60405180910390f35b610310600480360381019061030b91906122a0565b6111c7565b005b61031a611732565b604051610327919061206a565b60405180910390f35b610338611738565b6040516103459190611fe4565b60405180910390f35b61036860048036038101906103639190612509565b61173e565b60405161037591906125e3565b60405180910390f35b610386611752565b604051610393919061260b565b60405180910390f35b6103b660048036038101906103b191906120dd565b611777565b005b6103d260048036038101906103cd9190611faa565b611799565b6040516103e496959493929190612624565b60405180910390f35b61040760048036038101906104029190612683565b6117fc565b005b610423600480360381019061041e91906126ae565b61190f565b60405161043091906125e3565b60405180910390f35b5f61044382611923565b9050919050565b7fa49807205ce4d355092ef5a8a18f56e8913cf4a201fbe287825b095693c217756104748161199c565b6103e88211156104b9576040517f08c379a00000000000000000000000000000000000000000000000000000000081526004016104b09061279b565b60405180910390fd5b816005819055507f45610d581145924dd7090a5017e5f2b1d6f42213bb2e95707ff86846bbfcb1ca826040516104ef9190611fe4565b60405180910390a15050565b60055481565b5f805f8381526020019081526020015f20600101549050919050565b61052682610501565b61052f8161199c565b61053983836119b0565b50505050565b60035f9054906101000a900473ffffffffffffffffffffffffffffffffffffffff1681565b61056c611a99565b5f60075f8381526020019081526020015f209050806006015f9054906101000a900460ff166105d0576040517f08c379a00000000000000000000000000000000000000000000000000000000081526004016105c790612803565b60405180910390fd5b3373ffffffffffffffffffffffffffffffffffffffff16816001015f9054906101000a900473ffffffffffffffffffffffffffffffffffffffff1673ffffffffffffffffffffffffffffffffffffffff16148061065357506106527fa49807205ce4d355092ef5a8a18f56e8913cf4a201fbe287825b095693c2177533611164565b5b610692576040517f08c379a00000000000000000000000000000000000000000000000000000000081526004016106899061286b565b60405180910390fd5b5f816006015f6101000a81548160ff0219169083151502179055505f816005015411156109df575f816005015467ffffffffffffffff8111156106d8576106d7612321565b5b6040519080825280602002602001820160405280156107065781602001602082028036833780820191505090505b5090505f826005015467ffffffffffffffff81111561072857610727612321565b5b6040519080825280602002602001820160405280156107565781602001602082028036833780820191505090505b5090505f805b846003018054905081101561092a575f60015f9054906101000a900473ffffffffffffffffffffffffffffffffffffffff1673ffffffffffffffffffffffffffffffffffffffff16633112de9a87600201548860030185815481106107c4576107c3612889565b5b905f5260205f2001546040518363ffffffff1660e01b81526004016107ea9291906128b6565b602060405180830381865afa158015610805573d5f803e3d5ffd5b505050506040513d601f19601f8201168201806040525081019061082991906128f1565b90505f60015f9054906101000a900473ffffffffffffffffffffffffffffffffffffffff1673ffffffffffffffffffffffffffffffffffffffff1662fdd58e30846040518363ffffffff1660e01b815260040161088792919061291c565b602060405180830381865afa1580156108a2573d5f803e3d5ffd5b505050506040513d601f19601f820116820180604052508101906108c691906128f1565b111561091c57808584815181106108e0576108df612889565b5b602002602001018181525050600184848151811061090157610900612889565b5b602002602001018181525050828061091890612970565b9350505b50808060010191505061075c565b5060015f9054906101000a900473ffffffffffffffffffffffffffffffffffffffff1673ffffffffffffffffffffffffffffffffffffffff16632eb2c2d630866001015f9054906101000a900473ffffffffffffffffffffffffffffffffffffffff1686866040518563ffffffff1660e01b81526004016109ae9493929190612aa1565b5f604051808303815f87803b1580156109c5575f80fd5b505af11580156109d7573d5f803e3d5ffd5b505050505050505b817fc41d93b8bfbf9fd7cf5bfe271fd649ab6a6fec0ea101c23b82a2a28eca2533a960405160405180910390a250610a15611abb565b50565b60015f9054906101000a900473ffffffffffffffffffffffffffffffffffffffff1681565b610a45611ad5565b73ffffffffffffffffffffffffffffffffffffffff168173ffffffffffffffffffffffffffffffffffffffff1614610aa9576040517f6697b23200000000000000000000000000000000000000000000000000000000815260040160405180910390fd5b610ab38282611adc565b505050565b60025f9054906101000a900473ffffffffffffffffffffffffffffffffffffffff1681565b610ae5611a99565b60025f9054906101000a900473ffffffffffffffffffffffffffffffffffffffff1673ffffffffffffffffffffffffffffffffffffffff1663e77db232336040518263ffffffff1660e01b8152600401610b3f919061260b565b602060405180830381865afa158015610b5a573d5f803e3d5ffd5b505050506040513d601f19601f82011682018060405250810190610b7e9190612b2f565b610bbd576040517f08c379a0000000000000000000000000000000000000000000000000000000008152600401610bb490612ba4565b60405180910390fd5b5f60075f8481526020019081526020015f209050806006015f9054906101000a900460ff16610c21576040517f08c379a0000000000000000000000000000000000000000000000000000000008152600401610c1890612803565b60405180910390fd5b5f82118015610c34575080600501548211155b610c73576040517f08c379a0000000000000000000000000000000000000000000000000000000008152600401610c6a90612c0c565b60405180910390fd5b5f816004015483610c849190612c2a565b90505f61271060055483610c989190612c2a565b610ca29190612c98565b90505f8183610cb19190612cc8565b9050610d223360045f9054906101000a900473ffffffffffffffffffffffffffffffffffffffff168460035f9054906101000a900473ffffffffffffffffffffffffffffffffffffffff1673ffffffffffffffffffffffffffffffffffffffff16611bc5909392919063ffffffff16565b610d9333856001015f9054906101000a900473ffffffffffffffffffffffffffffffffffffffff168360035f9054906101000a900473ffffffffffffffffffffffffffffffffffffffff1673ffffffffffffffffffffffffffffffffffffffff16611bc5909392919063ffffffff16565b5f8567ffffffffffffffff811115610dae57610dad612321565b5b604051908082528060200260200182016040528015610ddc5781602001602082028036833780820191505090505b5090505f8667ffffffffffffffff811115610dfa57610df9612321565b5b604051908082528060200260200182016040528015610e285781602001602082028036833780820191505090505b5090505f805b876003018054905081108015610e4357508882105b1561100d575f60015f9054906101000a900473ffffffffffffffffffffffffffffffffffffffff1673ffffffffffffffffffffffffffffffffffffffff16633112de9a8a600201548b6003018581548110610ea157610ea0612889565b5b905f5260205f2001546040518363ffffffff1660e01b8152600401610ec79291906128b6565b602060405180830381865afa158015610ee2573d5f803e3d5ffd5b505050506040513d601f19601f82011682018060405250810190610f0691906128f1565b90505f60015f9054906101000a900473ffffffffffffffffffffffffffffffffffffffff1673ffffffffffffffffffffffffffffffffffffffff1662fdd58e30846040518363ffffffff1660e01b8152600401610f6492919061291c565b602060405180830381865afa158015610f7f573d5f803e3d5ffd5b505050506040513d601f19601f82011682018060405250810190610fa391906128f1565b1115610ff95780858481518110610fbd57610fbc612889565b5b6020026020010181815250506001848481518110610fde57610fdd612889565b5b6020026020010181815250508280610ff590612970565b9350505b50808061100590612970565b915050610e2e565b5060015f9054906101000a900473ffffffffffffffffffffffffffffffffffffffff1673ffffffffffffffffffffffffffffffffffffffff16632eb2c2d6303386866040518563ffffffff1660e01b815260040161106e9493929190612aa1565b5f604051808303815f87803b158015611085575f80fd5b505af1158015611097573d5f803e3d5ffd5b5050505087876005015f8282546110ae9190612cc8565b925050819055505f8760050154036110dc575f876006015f6101000a81548160ff0219169083151502179055505b3373ffffffffffffffffffffffffffffffffffffffff16897fcd1c39d27a443bebce7f2cf1cb49519e7586ec24d1a7a7c9fcc00f57cd8efbfb8a896040516111259291906128b6565b60405180910390a35050505050505061113c611abb565b5050565b7fa49807205ce4d355092ef5a8a18f56e8913cf4a201fbe287825b095693c2177581565b5f805f8481526020019081526020015f205f015f8373ffffffffffffffffffffffffffffffffffffffff1673ffffffffffffffffffffffffffffffffffffffff1681526020019081526020015f205f9054906101000a900460ff16905092915050565b6111cf611a99565b60025f9054906101000a900473ffffffffffffffffffffffffffffffffffffffff1673ffffffffffffffffffffffffffffffffffffffff1663e77db232336040518263ffffffff1660e01b8152600401611229919061260b565b602060405180830381865afa158015611244573d5f803e3d5ffd5b505050506040513d601f19601f820116820180604052508101906112689190612b2f565b6112a7576040517f08c379a000000000000000000000000000000000000000000000000000000000815260040161129e90612ba4565b60405180910390fd5b5f83839050116112ec576040517f08c379a00000000000000000000000000000000000000000000000000000000081526004016112e390612d45565b60405180910390fd5b5f811161132e576040517f08c379a000000000000000000000000000000000000000000000000000000000815260040161132590612dad565b60405180910390fd5b5f8383905067ffffffffffffffff81111561134c5761134b612321565b5b60405190808252806020026020018201604052801561137a5781602001602082028036833780820191505090505b5090505f8484905067ffffffffffffffff81111561139b5761139a612321565b5b6040519080825280602002602001820160405280156113c95781602001602082028036833780820191505090505b5090505f5b858590508110156114da5760015f9054906101000a900473ffffffffffffffffffffffffffffffffffffffff1673ffffffffffffffffffffffffffffffffffffffff16633112de9a8888888581811061142a57611429612889565b5b905060200201356040518363ffffffff1660e01b815260040161144e9291906128b6565b602060405180830381865afa158015611469573d5f803e3d5ffd5b505050506040513d601f19601f8201168201806040525081019061148d91906128f1565b8382815181106114a05761149f612889565b5b60200260200101818152505060018282815181106114c1576114c0612889565b5b60200260200101818152505080806001019150506113ce565b5060015f9054906101000a900473ffffffffffffffffffffffffffffffffffffffff1673ffffffffffffffffffffffffffffffffffffffff16632eb2c2d6333085856040518563ffffffff1660e01b815260040161153b9493929190612aa1565b5f604051808303815f87803b158015611552575f80fd5b505af1158015611564573d5f803e3d5ffd5b505050505f60065f81548092919061157b90612970565b9190505590506040518060e001604052808281526020013373ffffffffffffffffffffffffffffffffffffffff1681526020018881526020018787808060200260200160405190810160405280939291908181526020018383602002808284375f81840152601f19601f8201169050808301925050505050505081526020018581526020018787905081526020016001151581525060075f8381526020019081526020015f205f820151815f01556020820151816001015f6101000a81548173ffffffffffffffffffffffffffffffffffffffff021916908373ffffffffffffffffffffffffffffffffffffffff160217905550604082015181600201556060820151816003019080519060200190611695929190611e4d565b506080820151816004015560a0820151816005015560c0820151816006015f6101000a81548160ff021916908315150217905550905050863373ffffffffffffffffffffffffffffffffffffffff16827fd0e2632082726e989c9a9cac6d495b05080e0d6836ee21e07618b32d5719a40489899050886040516117199291906128b6565b60405180910390a450505061172c611abb565b50505050565b5f801b81565b60065481565b5f63bc197c8160e01b905095945050505050565b60045f9054906101000a900473ffffffffffffffffffffffffffffffffffffffff1681565b61178082610501565b6117898161199c565b6117938383611adc565b50505050565b6007602052805f5260405f205f91509050805f015490806001015f9054906101000a900473ffffffffffffffffffffffffffffffffffffffff1690806002015490806004015490806005015490806006015f9054906101000a900460ff16905086565b7fa49807205ce4d355092ef5a8a18f56e8913cf4a201fbe287825b095693c217756118268161199c565b5f73ffffffffffffffffffffffffffffffffffffffff168273ffffffffffffffffffffffffffffffffffffffff1603611894576040517f08c379a000000000000000000000000000000000000000000000000000000000815260040161188b90612e15565b60405180910390fd5b8160045f6101000a81548173ffffffffffffffffffffffffffffffffffffffff021916908373ffffffffffffffffffffffffffffffffffffffff1602179055507f7dae230f18360d76a040c81f050aa14eb9d6dc7901b20fc5d855e2a20fe814d182604051611903919061260b565b60405180910390a15050565b5f63f23a6e6160e01b905095945050505050565b5f7f4e2312e0000000000000000000000000000000000000000000000000000000007bffffffffffffffffffffffffffffffffffffffffffffffffffffffff1916827bffffffffffffffffffffffffffffffffffffffffffffffffffffffff19161480611995575061199482611c1a565b5b9050919050565b6119ad816119a8611ad5565b611c93565b50565b5f6119bb8383611164565b611a8f5760015f808581526020019081526020015f205f015f8473ffffffffffffffffffffffffffffffffffffffff1673ffffffffffffffffffffffffffffffffffffffff1681526020019081526020015f205f6101000a81548160ff021916908315150217905550611a2c611ad5565b73ffffffffffffffffffffffffffffffffffffffff168273ffffffffffffffffffffffffffffffffffffffff16847f2f8788117e7eff1d82e926ec794901d17c78024a50270940304540a733656f0d60405160405180910390a460019050611a93565b5f90505b92915050565b611aa1611ce4565b6002611ab3611aae611d25565b611d4e565b5f0181905550565b6001611acd611ac8611d25565b611d4e565b5f0181905550565b5f33905090565b5f611ae78383611164565b15611bbb575f805f8581526020019081526020015f205f015f8473ffffffffffffffffffffffffffffffffffffffff1673ffffffffffffffffffffffffffffffffffffffff1681526020019081526020015f205f6101000a81548160ff021916908315150217905550611b58611ad5565b73ffffffffffffffffffffffffffffffffffffffff168273ffffffffffffffffffffffffffffffffffffffff16847ff6391f5c32d9c69d2a47ea670b442974b53935d1edc7fd64eb21e047a839171b60405160405180910390a460019050611bbf565b5f90505b92915050565b611bd3848484846001611d57565b611c1457836040517f5274afe7000000000000000000000000000000000000000000000000000000008152600401611c0b919061260b565b60405180910390fd5b50505050565b5f7f7965db0b000000000000000000000000000000000000000000000000000000007bffffffffffffffffffffffffffffffffffffffffffffffffffffffff1916827bffffffffffffffffffffffffffffffffffffffffffffffffffffffff19161480611c8c5750611c8b82611dc8565b5b9050919050565b611c9d8282611164565b611ce05780826040517fe2517d3f000000000000000000000000000000000000000000000000000000008152600401611cd7929190612e33565b60405180910390fd5b5050565b611cec611e31565b15611d23576040517f3ee5aeb500000000000000000000000000000000000000000000000000000000815260040160405180910390fd5b565b5f7f9b779b17422d0df92223018b32b4d1fa46e071723d6817e2486d003becc55f005f1b905090565b5f819050919050565b5f806323b872dd60e01b9050604051815f525f1960601c87166004525f1960601c86166024528460445260205f60645f808c5af1925060015f51148316611db5578383151615611da9573d5f823e3d81fd5b5f883b113d1516831692505b806040525f606052505095945050505050565b5f7f01ffc9a7000000000000000000000000000000000000000000000000000000007bffffffffffffffffffffffffffffffffffffffffffffffffffffffff1916827bffffffffffffffffffffffffffffffffffffffffffffffffffffffff1916149050919050565b5f6002611e44611e3f611d25565b611d4e565b5f015414905090565b828054828255905f5260205f20908101928215611e87579160200282015b82811115611e86578251825591602001919060010190611e6b565b5b509050611e949190611e98565b5090565b5b80821115611eaf575f815f905550600101611e99565b5090565b5f604051905090565b5f80fd5b5f80fd5b5f7fffffffff0000000000000000000000000000000000000000000000000000000082169050919050565b611ef881611ec4565b8114611f02575f80fd5b50565b5f81359050611f1381611eef565b92915050565b5f60208284031215611f2e57611f2d611ebc565b5b5f611f3b84828501611f05565b91505092915050565b5f8115159050919050565b611f5881611f44565b82525050565b5f602082019050611f715f830184611f4f565b92915050565b5f819050919050565b611f8981611f77565b8114611f93575f80fd5b50565b5f81359050611fa481611f80565b92915050565b5f60208284031215611fbf57611fbe611ebc565b5b5f611fcc84828501611f96565b91505092915050565b611fde81611f77565b82525050565b5f602082019050611ff75f830184611fd5565b92915050565b5f819050919050565b61200f81611ffd565b8114612019575f80fd5b50565b5f8135905061202a81612006565b92915050565b5f6020828403121561204557612044611ebc565b5b5f6120528482850161201c565b91505092915050565b61206481611ffd565b82525050565b5f60208201905061207d5f83018461205b565b92915050565b5f73ffffffffffffffffffffffffffffffffffffffff82169050919050565b5f6120ac82612083565b9050919050565b6120bc816120a2565b81146120c6575f80fd5b50565b5f813590506120d7816120b3565b92915050565b5f80604083850312156120f3576120f2611ebc565b5b5f6121008582860161201c565b9250506020612111858286016120c9565b9150509250929050565b5f819050919050565b5f61213e61213961213484612083565b61211b565b612083565b9050919050565b5f61214f82612124565b9050919050565b5f61216082612145565b9050919050565b61217081612156565b82525050565b5f6020820190506121895f830184612167565b92915050565b5f61219982612145565b9050919050565b6121a98161218f565b82525050565b5f6020820190506121c25f8301846121a0565b92915050565b5f6121d282612145565b9050919050565b6121e2816121c8565b82525050565b5f6020820190506121fb5f8301846121d9565b92915050565b5f806040838503121561221757612216611ebc565b5b5f61222485828601611f96565b925050602061223585828601611f96565b9150509250929050565b5f80fd5b5f80fd5b5f80fd5b5f8083601f8401126122605761225f61223f565b5b8235905067ffffffffffffffff81111561227d5761227c612243565b5b60208301915083602082028301111561229957612298612247565b5b9250929050565b5f805f80606085870312156122b8576122b7611ebc565b5b5f6122c587828801611f96565b945050602085013567ffffffffffffffff8111156122e6576122e5611ec0565b5b6122f28782880161224b565b9350935050604061230587828801611f96565b91505092959194509250565b5f601f19601f8301169050919050565b7f4e487b71000000000000000000000000000000000000000000000000000000005f52604160045260245ffd5b61235782612311565b810181811067ffffffffffffffff8211171561237657612375612321565b5b80604052505050565b5f612388611eb3565b9050612394828261234e565b919050565b5f67ffffffffffffffff8211156123b3576123b2612321565b5b602082029050602081019050919050565b5f6123d66123d184612399565b61237f565b905080838252602082019050602084028301858111156123f9576123f8612247565b5b835b81811015612422578061240e8882611f96565b8452602084019350506020810190506123fb565b5050509392505050565b5f82601f8301126124405761243f61223f565b5b81356124508482602086016123c4565b91505092915050565b5f80fd5b5f67ffffffffffffffff82111561247757612476612321565b5b61248082612311565b9050602081019050919050565b828183375f83830152505050565b5f6124ad6124a88461245d565b61237f565b9050828152602081018484840111156124c9576124c8612459565b5b6124d484828561248d565b509392505050565b5f82601f8301126124f0576124ef61223f565b5b813561250084826020860161249b565b91505092915050565b5f805f805f60a0868803121561252257612521611ebc565b5b5f61252f888289016120c9565b9550506020612540888289016120c9565b945050604086013567ffffffffffffffff81111561256157612560611ec0565b5b61256d8882890161242c565b935050606086013567ffffffffffffffff81111561258e5761258d611ec0565b5b61259a8882890161242c565b925050608086013567ffffffffffffffff8111156125bb576125ba611ec0565b5b6125c7888289016124dc565b9150509295509295909350565b6125dd81611ec4565b82525050565b5f6020820190506125f65f8301846125d4565b92915050565b612605816120a2565b82525050565b5f60208201905061261e5f8301846125fc565b92915050565b5f60c0820190506126375f830189611fd5565b61264460208301886125fc565b6126516040830187611fd5565b61265e6060830186611fd5565b61266b6080830185611fd5565b61267860a0830184611f4f565b979650505050505050565b5f6020828403121561269857612697611ebc565b5b5f6126a5848285016120c9565b91505092915050565b5f805f805f60a086880312156126c7576126c6611ebc565b5b5f6126d4888289016120c9565b95505060206126e5888289016120c9565b94505060406126f688828901611f96565b935050606061270788828901611f96565b925050608086013567ffffffffffffffff81111561272857612727611ec0565b5b612734888289016124dc565b9150509295509295909350565b5f82825260208201905092915050565b7f46656520746f6f206869676800000000000000000000000000000000000000005f82015250565b5f612785600c83612741565b915061279082612751565b602082019050919050565b5f6020820190508181035f8301526127b281612779565b9050919050565b7f4c697374696e67206e6f742061637469766500000000000000000000000000005f82015250565b5f6127ed601283612741565b91506127f8826127b9565b602082019050919050565b5f6020820190508181035f83015261281a816127e1565b9050919050565b7f4e6f742073656c6c6572206f722061646d696e000000000000000000000000005f82015250565b5f612855601383612741565b915061286082612821565b602082019050919050565b5f6020820190508181035f83015261288281612849565b9050919050565b7f4e487b71000000000000000000000000000000000000000000000000000000005f52603260045260245ffd5b5f6040820190506128c95f830185611fd5565b6128d66020830184611fd5565b9392505050565b5f815190506128eb81611f80565b92915050565b5f6020828403121561290657612905611ebc565b5b5f612913848285016128dd565b91505092915050565b5f60408201905061292f5f8301856125fc565b61293c6020830184611fd5565b9392505050565b7f4e487b71000000000000000000000000000000000000000000000000000000005f52601160045260245ffd5b5f61297a82611f77565b91507fffffffffffffffffffffffffffffffffffffffffffffffffffffffffffffffff82036129ac576129ab612943565b5b600182019050919050565b5f81519050919050565b5f82825260208201905092915050565b5f819050602082019050919050565b6129e981611f77565b82525050565b5f6129fa83836129e0565b60208301905092915050565b5f602082019050919050565b5f612a1c826129b7565b612a2681856129c1565b9350612a31836129d1565b805f5b83811015612a61578151612a4888826129ef565b9750612a5383612a06565b925050600181019050612a34565b5085935050505092915050565b5f82825260208201905092915050565b50565b5f612a8c5f83612a6e565b9150612a9782612a7e565b5f82019050919050565b5f60a082019050612ab45f8301876125fc565b612ac160208301866125fc565b8181036040830152612ad38185612a12565b90508181036060830152612ae78184612a12565b90508181036080830152612afa81612a81565b905095945050505050565b612b0e81611f44565b8114612b18575f80fd5b50565b5f81519050612b2981612b05565b92915050565b5f60208284031215612b4457612b43611ebc565b5b5f612b5184828501612b1b565b91505092915050565b7f4b5943206e6f7420617070726f766564000000000000000000000000000000005f82015250565b5f612b8e601083612741565b9150612b9982612b5a565b602082019050919050565b5f6020820190508181035f830152612bbb81612b82565b9050919050565b7f496e76616c696420706978656c20636f756e74000000000000000000000000005f82015250565b5f612bf6601383612741565b9150612c0182612bc2565b602082019050919050565b5f6020820190508181035f830152612c2381612bea565b9050919050565b5f612c3482611f77565b9150612c3f83611f77565b9250828202612c4d81611f77565b91508282048414831517612c6457612c63612943565b5b5092915050565b7f4e487b71000000000000000000000000000000000000000000000000000000005f52601260045260245ffd5b5f612ca282611f77565b9150612cad83611f77565b925082612cbd57612cbc612c6b565b5b828204905092915050565b5f612cd282611f77565b9150612cdd83611f77565b9250828203905081811115612cf557612cf4612943565b5b92915050565b7f4e6f20706978656c732070726f766964656400000000000000000000000000005f82015250565b5f612d2f601283612741565b9150612d3a82612cfb565b602082019050919050565b5f6020820190508181035f830152612d5c81612d23565b9050919050565b7f5072696365206d757374206265203e20300000000000000000000000000000005f82015250565b5f612d97601183612741565b9150612da282612d63565b602082019050919050565b5f6020820190508181035f830152612dc481612d8b565b9050919050565b7f496e76616c6964206164647265737300000000000000000000000000000000005f82015250565b5f612dff600f83612741565b9150612e0a82612dcb565b602082019050919050565b5f6020820190508181035f830152612e2c81612df3565b9050919050565b5f604082019050612e465f8301856125fc565b612e53602083018461205b565b939250505056fea264697066735822122094ffe767166b2fcce61c16a773ec706e3717c0c9b1efbbab8e06061773f389ac64736f6c63430008180033",
  "linkReferences": {},
  "deployedLinkReferences": {}
}