{
  "_format": "hh-sol-artifact-1",
  "contractName": "PropertyRegistry",
  "sourceName": "contracts/PropertyRegistry.sol",
  "abi": [
    {
      "inputs": [],
      "stateMutability": "nonpayable",
      "type": "constructor"
    },
    {
      "inputs": [],
      "name": "AccessControlBadConfirmation",
      "type": "error"
    },
    {
      "inputs": [
        {
          "internalType": "address",
          "name": "account",
          "type": "address"
        },
        {
          "internalType": "bytes32",
          "name": "neededRole",
          "type": "bytes32"
        }
      ],
      "name": "AccessControlUnauthorizedAccount",
      "type": "error"
    },
    {
      "anonymous": false,
      "inputs": [
        {
          "indexed": true,
          "internalType": "uint256",
          "name": "propertyId",
          "type": "uint256"
        },
        {
          "indexed": false,
          "internalType": "string",
          "name": "metadataURI",
          "type": "string"
        }
      ],
      "name": "MetadataUpdated",
      "type": "event"
    },
    {
      "anonymous": false,
      "inputs": [
        {
          "indexed": true,
          "internalType": "uint256",
          "name": "propertyId",
          "type": "uint256"
        },
        {
          "indexed": false,
          "internalType": "uint256",
          "name": "count",
          "type": "uint256"
        }
      ],
      "name": "PixelsMinted",
      "type": "event"
    },
    {
      "anonymous": false,
      "inputs": [
        {
          "indexed": true,
          "internalType": "uint256",
          "name": "propertyId",
          "type": "uint256"
        },
        {
          "indexed": false,
          "internalType": "uint256",
          "name": "totalPixels",
          "type": "uint256"
        },
        {
          "indexed": false,
          "internalType": "uint256",
          "name": "pricePerPixel",
          "type": "uint256"
        }
      ],
      "name": "PropertyRegistered",
      "type": "event"
    },
    {
      "anonymous": false,
      "inputs": [
        {
          "indexed": true,
          "internalType": "bytes32",
          "name": "role",
          "type": "bytes32"
        },
        {
          "indexed": true,
          "internalType": "bytes32",
          "name": "previousAdminRole",
          "type": "bytes32"
        },
        {
          "indexed": true,
          "internalType": "bytes32",
          "name": "newAdminRole",
          "type": "bytes32"
        }
      ],
      "name": "RoleAdminChanged",
      "type": "event"
    },
    {
      "anonymous": false,
      "inputs": [
        {
          "indexed": true,
          "internalType": "bytes32",
          "name": "role",
          "type": "bytes32"
        },
        {
          "indexed": true,
          "internalType": "address",
          "name": "account",
          "type": "address"
        },
        {
          "indexed": true,
          "internalType": "address",
          "name": "sender",
          "type": "address"
        }
      ],
      "name": "RoleGranted",
      "type": "event"
    },
    {
      "anonymous": false,
      "inputs": [
        {
          "indexed": true,
          "internalType": "bytes32",
          "name": "role",
          "type": "bytes32"
        },
        {
          "indexed": true,
          "internalType": "address",
          "name": "account",
          "type": "address"
        },
        {
          "indexed": true,
          "internalType": "address",
          "name": "sender",
          "type": "address"
        }
      ],
      "name": "RoleRevoked",
      "type": "event"
    },
    {
      "anonymous": false,
      "inputs": [
        {
          "indexed": true,
          "internalType": "uint256",
          "name": "propertyId",
          "type": "uint256"
        },
        {
          "indexed": false,
          "internalType": "enum PropertyRegistry.PropertyStatus",
          "name": "status",
          "type": "uint8"
        }
      ],
      "name": "StatusUpdated",
      "type": "event"
    },
    {
      "inputs": [],
      "name": "DEFAULT_ADMIN_ROLE",
      "outputs": [
        {
          "internalType": "bytes32",
          "name": "",
          "type": "bytes32"
        }
      ],
      "stateMutability": "view",
      "type": "function"
    },
    {
      "inputs": [],
      "name": "REGISTRY_ADMIN_ROLE",
      "outputs": [
        {
          "internalType": "bytes32",
          "name": "",
          "type": "bytes32"
        }
      ],
      "stateMutability": "view",
      "type": "function"
    },
    {
      "inputs": [
        {
          "internalType": "uint256",
          "name": "propertyId",
          "type": "uint256"
        }
      ],
      "name": "getProperty",
      "outputs": [
        {
          "components": [
            {
              "internalType": "string",
              "name": "metadataURI",
              "type": "string"
            },
            {
              "internalType": "uint256",
              "name": "totalPixels",
              "type": "uint256"
            },
            {
              "internalType": "uint256",
              "name": "mintedPixels",
              "type": "uint256"
            },
            {
              "internalType": "uint256",
              "name": "pricePerPixel",
              "type": "uint256"
            },
            {
              "internalType": "uint256",
              "name": "rentalYieldBps",
              "type": "uint256"
            },
            {
              "internalType": "enum PropertyRegistry.PropertyStatus",
              "name": "status",
              "type": "uint8"
            },
            {
              "internalType": "uint256",
              "name": "createdAt",
              "type": "uint256"
            }
          ],
          "internalType": "struct PropertyRegistry.PropertyInfo",
          "name": "",
          "type": "tuple"
        }
      ],
      "stateMutability": "view",
      "type": "function"
    },
    {
      "inputs": [
        {
          "internalType": "bytes32",
          "name": "role",
          "type": "bytes32"
        }
      ],
      "name": "getRoleAdmin",
      "outputs": [
        {
          "internalType": "bytes32",
          "name": "",
          "type": "bytes32"
        }
      ],
      "stateMutability": "view",
      "type": "function"
    },
    {
      "inputs": [
        {
          "internalType": "bytes32",
          "name": "role",
          "type": "bytes32"
        },
        {
          "internalType": "address",
          "name": "account",
          "type": "address"
        }
      ],
      "name": "grantRole",
      "outputs": [],
      "stateMutability": "nonpayable",
      "type": "function"
    },
    {
      "inputs": [
        {
          "internalType": "bytes32",
          "name": "role",
          "type": "bytes32"
        },
        {
          "internalType": "address",
          "name": "account",
          "type": "address"
        }
      ],
      "name": "hasRole",
      "outputs": [
        {
          "internalType": "bool",
          "name": "",
          "type": "bool"
        }
      ],
      "stateMutability": "view",
      "type": "function"
    },
    {
      "inputs": [
        {
          "internalType": "uint256",
          "name": "propertyId",
          "type": "uint256"
        },
        {
          "internalType": "uint256",
          "name": "count",
          "type": "uint256"
        }
      ],
      "name": "incrementMintedPixels",
      "outputs": [],
      "stateMutability": "nonpayable",
      "type": "function"
    },
    {
      "inputs": [
        {
          "internalType": "uint256",
          "name": "",
          "type": "uint256"
        }
      ],
      "name": "properties",
      "outputs": [
        {
          "internalType": "string",
          "name": "metadataURI",
          "type": "string"
        },
        {
          "internalType": "uint256",
          "name": "totalPixels",
          "type": "uint256"
        },
        {
          "internalType": "uint256",
          "name": "mintedPixels",
          "type": "uint256"
        },
        {
          "internalType": "uint256",
          "name": "pricePerPixel",
          "type": "uint256"
        },
        {
          "internalType": "uint256",
          "name": "rentalYieldBps",
          "type": "uint256"
        },
        {
          "internalType": "enum PropertyRegistry.PropertyStatus",
          "name": "status",
          "type": "uint8"
        },
        {
          "internalType": "uint256",
          "name": "createdAt",
          "type": "uint256"
        }
      ],
      "stateMutability": "view",
      "type": "function"
    },
    {
      "inputs": [
        {
          "internalType": "uint256",
          "name": "propertyId",
          "type": "uint256"
        },
        {
          "internalType": "string",
          "name": "metadataURI",
          "type": "string"
        },
        {
          "internalType": "uint256",
          "name": "totalPixels",
          "type": "uint256"
        },
        {
          "internalType": "uint256",
          "name": "pricePerPixel",
          "type": "uint256"
        },
        {
          "internalType": "uint256",
          "name": "rentalYieldBps",
          "type": "uint256"
        }
      ],
      "name": "registerProperty",
      "outputs": [],
      "stateMutability": "nonpayable",
      "type": "function"
    },
    {
      "inputs": [
        {
          "internalType": "bytes32",
          "name": "role",
          "type": "bytes32"
        },
        {
          "internalType": "address",
          "name": "callerConfirmation",
          "type": "address"
        }
      ],
      "name": "renounceRole",
      "outputs": [],
      "stateMutability": "nonpayable",
      "type": "function"
    },
    {
      "inputs": [
        {
          "internalType": "bytes32",
          "name": "role",
          "type": "bytes32"
        },
        {
          "internalType": "address",
          "name": "account",
          "type": "address"
        }
      ],
      "name": "revokeRole",
      "outputs": [],
      "stateMutability": "nonpayable",
      "type": "function"
    },
    {
      "inputs": [
        {
          "internalType": "uint256",
          "name": "propertyId",
          "type": "uint256"
        },
        {
          "internalType": "enum PropertyRegistry.PropertyStatus",
          "name": "status",
          "type": "uint8"
        }
      ],
      "name": "setPropertyStatus",
      "outputs": [],
      "stateMutability": "nonpayable",
      "type": "function"
    },
    {
      "inputs": [
        {
          "internalType": "bytes4",
          "name": "interfaceId",
          "type": "bytes4"
        }
      ],
      "name": "supportsInterface",
      "outputs": [
        {
          "internalType": "bool",
          "name": "",
          "type": "bool"
        }
      ],
      "stateMutability": "view",
      "type": "function"
    },
    {
      "inputs": [
        {
          "internalType": "uint256",
          "name": "propertyId",
          "type": "uint256"
        },
        {
          "internalType": "string",
          "name": "metadataURI",
          "type": "string"
        }
      ],
      "name": "updateMetadata",
      "outputs": [],
      "stateMutability": "nonpayable",
      "type": "function"
    }
  ],
  "bytecode": "0x608060405234801562000010575f80fd5b50620000255f801b336200005f60201b60201c565b50620000587fbb28eb1a0cfabcecf96003fab466159bc2e051e49d79baf049890044e9072440336200005f60201b60201c565b50620001c4565b5f6200007283836200015a60201b60201c565b620001505760015f808581526020019081526020015f205f015f8473ffffffffffffffffffffffffffffffffffffffff1673ffffffffffffffffffffffffffffffffffffffff1681526020019081526020015f205f6101000a81548160ff021916908315150217905550620000ec620001bd60201b60201c565b73ffffffffffffffffffffffffffffffffffffffff168273ffffffffffffffffffffffffffffffffffffffff16847f2f8788117e7eff1d82e926ec794901d17c78024a50270940304540a733656f0d60405160405180910390a46001905062000154565b5f90505b92915050565b5f805f8481526020019081526020015f205f015f8373ffffffffffffffffffffffffffffffffffffffff1673ffffffffffffffffffffffffffffffffffffffff1681526020019081526020015f205f9054906101000a900460ff16905092915050565b5f33905090565b611d0480620001d25f395ff3fe608060405234801561000f575f80fd5b50600436106100e8575f3560e01c8063a217fddf1161008a578063e1a7417011610064578063e1a7417014610258578063eaeeadc714610274578063f653ab8d14610290578063f7b10808146102ac576100e8565b8063a217fddf14610200578063bf584c4b1461021e578063d547741f1461023c576100e8565b806332665ffb116100c657806332665ffb1461016857806336568abe1461019857806353c8388e146101b457806391d14854146101d0576100e8565b806301ffc9a7146100ec578063248a9ca31461011c5780632f2ff15d1461014c575b5f80fd5b61010660048036038101906101019190610faa565b6102e2565b6040516101139190610fef565b60405180910390f35b6101366004803603810190610131919061103b565b61035b565b6040516101439190611075565b60405180910390f35b610166600480360381019061016191906110e8565b610377565b005b610182600480360381019061017d9190611159565b610399565b60405161018f9190611329565b60405180910390f35b6101b260048036038101906101ad91906110e8565b610515565b005b6101ce60048036038101906101c991906113aa565b610590565b005b6101ea60048036038101906101e591906110e8565b610673565b6040516101f79190610fef565b60405180910390f35b6102086106d6565b6040516102159190611075565b60405180910390f35b6102266106dc565b6040516102339190611075565b60405180910390f35b610256600480360381019061025191906110e8565b610700565b005b610272600480360381019061026d9190611407565b610722565b005b61028e60048036038101906102899190611445565b61087f565b005b6102aa60048036038101906102a591906114fe565b610a95565b005b6102c660048036038101906102c19190611159565b610b8d565b6040516102d997969594939291906115a2565b60405180910390f35b5f7f7965db0b000000000000000000000000000000000000000000000000000000007bffffffffffffffffffffffffffffffffffffffffffffffffffffffff1916827bffffffffffffffffffffffffffffffffffffffffffffffffffffffff19161480610354575061035382610c5d565b5b9050919050565b5f805f8381526020019081526020015f20600101549050919050565b6103808261035b565b61038981610cc6565b6103938383610cda565b50505050565b6103a1610f04565b5f60015f8481526020019081526020015f2060060154116103f7576040517f08c379a00000000000000000000000000000000000000000000000000000000081526004016103ee90611660565b60405180910390fd5b60015f8381526020019081526020015f206040518060e00160405290815f82018054610422906116ab565b80601f016020809104026020016040519081016040528092919081815260200182805461044e906116ab565b80156104995780601f1061047057610100808354040283529160200191610499565b820191905f5260205f20905b81548152906001019060200180831161047c57829003601f168201915b5050505050815260200160018201548152602001600282015481526020016003820154815260200160048201548152602001600582015f9054906101000a900460ff1660038111156104ee576104ed61121d565b5b6003811115610500576104ff61121d565b5b81526020016006820154815250509050919050565b61051d610dc3565b73ffffffffffffffffffffffffffffffffffffffff168173ffffffffffffffffffffffffffffffffffffffff1614610581576040517f6697b23200000000000000000000000000000000000000000000000000000000815260040160405180910390fd5b61058b8282610dca565b505050565b7fbb28eb1a0cfabcecf96003fab466159bc2e051e49d79baf049890044e90724406105ba81610cc6565b5f60015f8681526020019081526020015f206006015411610610576040517f08c379a000000000000000000000000000000000000000000000000000000000815260040161060790611660565b60405180910390fd5b828260015f8781526020019081526020015f205f0191826106329291906118af565b50837f459157ba24c7ab9878b165ef465fa6ae2ab42bcd8445f576be378768b0c4730984846040516106659291906119b6565b60405180910390a250505050565b5f805f8481526020019081526020015f205f015f8373ffffffffffffffffffffffffffffffffffffffff1673ffffffffffffffffffffffffffffffffffffffff1681526020019081526020015f205f9054906101000a900460ff16905092915050565b5f801b81565b7fbb28eb1a0cfabcecf96003fab466159bc2e051e49d79baf049890044e907244081565b6107098261035b565b61071281610cc6565b61071c8383610dca565b50505050565b7fbb28eb1a0cfabcecf96003fab466159bc2e051e49d79baf049890044e907244061074c81610cc6565b5f60015f8581526020019081526020015f2060060154116107a2576040517f08c379a000000000000000000000000000000000000000000000000000000000815260040161079990611660565b60405180910390fd5b60015f8481526020019081526020015f20600101548260015f8681526020019081526020015f20600201546107d79190611a05565b1115610818576040517f08c379a000000000000000000000000000000000000000000000000000000000815260040161080f90611a82565b60405180910390fd5b8160015f8581526020019081526020015f206002015f82825461083b9190611a05565b92505081905550827f31bea59d8ad9ddb8aa2ea1483b490df56c1ed1d0c88fc224df304cfb5c3a1ac3836040516108729190611aa0565b60405180910390a2505050565b7fbb28eb1a0cfabcecf96003fab466159bc2e051e49d79baf049890044e90724406108a981610cc6565b5f60015f8981526020019081526020015f2060060154146108ff576040517f08c379a00000000000000000000000000000000000000000000000000000000081526004016108f690611b03565b60405180910390fd5b5f8411610941576040517f08c379a000000000000000000000000000000000000000000000000000000000815260040161093890611b6b565b60405180910390fd5b6040518060e0016040528087878080601f0160208091040260200160405190810160405280939291908181526020018383808284375f81840152601f19601f8201169050808301925050505050505081526020018581526020015f81526020018481526020018381526020015f60038111156109c0576109bf61121d565b5b81526020014281525060015f8981526020019081526020015f205f820151815f0190816109ed9190611b89565b506020820151816001015560408201518160020155606082015181600301556080820151816004015560a0820151816005015f6101000a81548160ff02191690836003811115610a4057610a3f61121d565b5b021790555060c08201518160060155905050867f8ec3e8a972eb7f4a2d0b8cf4c310e8ea9fc2978c5836dd99b9ae28d5339235358585604051610a84929190611c58565b60405180910390a250505050505050565b7fbb28eb1a0cfabcecf96003fab466159bc2e051e49d79baf049890044e9072440610abf81610cc6565b5f60015f8581526020019081526020015f206006015411610b15576040517f08c379a0000000000000000000000000000000000000000000000000000000008152600401610b0c90611660565b60405180910390fd5b8160015f8581526020019081526020015f206005015f6101000a81548160ff02191690836003811115610b4b57610b4a61121d565b5b0217905550827f2da7b23ca63c1eb969eee5fae4acb98186abecf5358b0354a82a5183ebca6b2a83604051610b809190611c7f565b60405180910390a2505050565b6001602052805f5260405f205f91509050805f018054610bac906116ab565b80601f0160208091040260200160405190810160405280929190818152602001828054610bd8906116ab565b8015610c235780601f10610bfa57610100808354040283529160200191610c23565b820191905f5260205f20905b815481529060010190602001808311610c0657829003601f168201915b505050505090806001015490806002015490806003015490806004015490806005015f9054906101000a900460ff16908060060154905087565b5f7f01ffc9a7000000000000000000000000000000000000000000000000000000007bffffffffffffffffffffffffffffffffffffffffffffffffffffffff1916827bffffffffffffffffffffffffffffffffffffffffffffffffffffffff1916149050919050565b610cd781610cd2610dc3565b610eb3565b50565b5f610ce58383610673565b610db95760015f808581526020019081526020015f205f015f8473ffffffffffffffffffffffffffffffffffffffff1673ffffffffffffffffffffffffffffffffffffffff1681526020019081526020015f205f6101000a81548160ff021916908315150217905550610d56610dc3565b73ffffffffffffffffffffffffffffffffffffffff168273ffffffffffffffffffffffffffffffffffffffff16847f2f8788117e7eff1d82e926ec794901d17c78024a50270940304540a733656f0d60405160405180910390a460019050610dbd565b5f90505b92915050565b5f33905090565b5f610dd58383610673565b15610ea9575f805f8581526020019081526020015f205f015f8473ffffffffffffffffffffffffffffffffffffffff1673ffffffffffffffffffffffffffffffffffffffff1681526020019081526020015f205f6101000a81548160ff021916908315150217905550610e46610dc3565b73ffffffffffffffffffffffffffffffffffffffff168273ffffffffffffffffffffffffffffffffffffffff16847ff6391f5c32d9c69d2a47ea670b442974b53935d1edc7fd64eb21e047a839171b60405160405180910390a460019050610ead565b5f90505b92915050565b610ebd8282610673565b610f005780826040517fe2517d3f000000000000000000000000000000000000000000000000000000008152600401610ef7929190611ca7565b60405180910390fd5b5050565b6040518060e00160405280606081526020015f81526020015f81526020015f81526020015f81526020015f6003811115610f4157610f4061121d565b5b81526020015f81525090565b5f80fd5b5f80fd5b5f7fffffffff0000000000000000000000000000000000000000000000000000000082169050919050565b610f8981610f55565b8114610f93575f80fd5b50565b5f81359050610fa481610f80565b92915050565b5f60208284031215610fbf57610fbe610f4d565b5b5f610fcc84828501610f96565b91505092915050565b5f8115159050919050565b610fe981610fd5565b82525050565b5f6020820190506110025f830184610fe0565b92915050565b5f819050919050565b61101a81611008565b8114611024575f80fd5b50565b5f8135905061103581611011565b92915050565b5f602082840312156110505761104f610f4d565b5b5f61105d84828501611027565b91505092915050565b61106f81611008565b82525050565b5f6020820190506110885f830184611066565b92915050565b5f73ffffffffffffffffffffffffffffffffffffffff82169050919050565b5f6110b78261108e565b9050919050565b6110c7816110ad565b81146110d1575f80fd5b50565b5f813590506110e2816110be565b92915050565b5f80604083850312156110fe576110fd610f4d565b5b5f61110b85828601611027565b925050602061111c858286016110d4565b9150509250929050565b5f819050919050565b61113881611126565b8114611142575f80fd5b50565b5f813590506111538161112f565b92915050565b5f6020828403121561116e5761116d610f4d565b5b5f61117b84828501611145565b91505092915050565b5f81519050919050565b5f82825260208201905092915050565b5f5b838110156111bb5780820151818401526020810190506111a0565b5f8484015250505050565b5f601f19601f8301169050919050565b5f6111e082611184565b6111ea818561118e565b93506111fa81856020860161119e565b611203816111c6565b840191505092915050565b61121781611126565b82525050565b7f4e487b71000000000000000000000000000000000000000000000000000000005f52602160045260245ffd5b6004811061125b5761125a61121d565b5b50565b5f81905061126b8261124a565b919050565b5f61127a8261125e565b9050919050565b61128a81611270565b82525050565b5f60e083015f8301518482035f8601526112aa82826111d6565b91505060208301516112bf602086018261120e565b5060408301516112d2604086018261120e565b5060608301516112e5606086018261120e565b5060808301516112f8608086018261120e565b5060a083015161130b60a0860182611281565b5060c083015161131e60c086018261120e565b508091505092915050565b5f6020820190508181035f8301526113418184611290565b905092915050565b5f80fd5b5f80fd5b5f80fd5b5f8083601f84011261136a57611369611349565b5b8235905067ffffffffffffffff8111156113875761138661134d565b5b6020830191508360018202830111156113a3576113a2611351565b5b9250929050565b5f805f604084860312156113c1576113c0610f4d565b5b5f6113ce86828701611145565b935050602084013567ffffffffffffffff8111156113ef576113ee610f51565b5b6113fb86828701611355565b92509250509250925092565b5f806040838503121561141d5761141c610f4d565b5b5f61142a85828601611145565b925050602061143b85828601611145565b9150509250929050565b5f805f805f8060a0878903121561145f5761145e610f4d565b5b5f61146c89828a01611145565b965050602087013567ffffffffffffffff81111561148d5761148c610f51565b5b61149989828a01611355565b955095505060406114ac89828a01611145565b93505060606114bd89828a01611145565b92505060806114ce89828a01611145565b9150509295509295509295565b600481106114e7575f80fd5b50565b5f813590506114f8816114db565b92915050565b5f806040838503121561151457611513610f4d565b5b5f61152185828601611145565b9250506020611532858286016114ea565b9150509250929050565b5f82825260208201905092915050565b5f61155682611184565b611560818561153c565b935061157081856020860161119e565b611579816111c6565b840191505092915050565b61158d81611126565b82525050565b61159c81611270565b82525050565b5f60e0820190508181035f8301526115ba818a61154c565b90506115c96020830189611584565b6115d66040830188611584565b6115e36060830187611584565b6115f06080830186611584565b6115fd60a0830185611593565b61160a60c0830184611584565b98975050505050505050565b7f50726f706572747920646f6573206e6f742065786973740000000000000000005f82015250565b5f61164a60178361153c565b915061165582611616565b602082019050919050565b5f6020820190508181035f8301526116778161163e565b9050919050565b7f4e487b71000000000000000000000000000000000000000000000000000000005f52602260045260245ffd5b5f60028204905060018216806116c257607f821691505b6020821081036116d5576116d461167e565b5b50919050565b5f82905092915050565b7f4e487b71000000000000000000000000000000000000000000000000000000005f52604160045260245ffd5b5f819050815f5260205f209050919050565b5f6020601f8301049050919050565b5f82821b905092915050565b5f6008830261176e7fffffffffffffffffffffffffffffffffffffffffffffffffffffffffffffffff82611733565b6117788683611733565b95508019841693508086168417925050509392505050565b5f819050919050565b5f6117b36117ae6117a984611126565b611790565b611126565b9050919050565b5f819050919050565b6117cc83611799565b6117e06117d8826117ba565b84845461173f565b825550505050565b5f90565b6117f46117e8565b6117ff8184846117c3565b505050565b5b81811015611822576118175f826117ec565b600181019050611805565b5050565b601f8211156118675761183881611712565b61184184611724565b81016020851015611850578190505b61186461185c85611724565b830182611804565b50505b505050565b5f82821c905092915050565b5f6118875f198460080261186c565b1980831691505092915050565b5f61189f8383611878565b9150826002028217905092915050565b6118b983836116db565b67ffffffffffffffff8111156118d2576118d16116e5565b5b6118dc82546116ab565b6118e7828285611826565b5f601f831160018114611914575f8415611902578287013590505b61190c8582611894565b865550611973565b601f19841661192286611712565b5f5b8281101561194957848901358255600182019150602085019450602081019050611924565b868310156119665784890135611962601f891682611878565b8355505b6001600288020188555050505b50505050505050565b828183375f83830152505050565b5f611995838561153c565b93506119a283858461197c565b6119ab836111c6565b840190509392505050565b5f6020820190508181035f8301526119cf81848661198a565b90509392505050565b7f4e487b71000000000000000000000000000000000000000000000000000000005f52601160045260245ffd5b5f611a0f82611126565b9150611a1a83611126565b9250828201905080821115611a3257611a316119d8565b5b92915050565b7f4578636565647320746f74616c20706978656c730000000000000000000000005f82015250565b5f611a6c60148361153c565b9150611a7782611a38565b602082019050919050565b5f6020820190508181035f830152611a9981611a60565b9050919050565b5f602082019050611ab35f830184611584565b92915050565b7f50726f706572747920616c7265616479206578697374730000000000000000005f82015250565b5f611aed60178361153c565b9150611af882611ab9565b602082019050919050565b5f6020820190508181035f830152611b1a81611ae1565b9050919050565b7f546f74616c20706978656c73206d757374206265203e203000000000000000005f82015250565b5f611b5560188361153c565b9150611b6082611b21565b602082019050919050565b5f6020820190508181035f830152611b8281611b49565b9050919050565b611b9282611184565b67ffffffffffffffff811115611bab57611baa6116e5565b5b611bb582546116ab565b611bc0828285611826565b5f60209050601f831160018114611bf1575f8415611bdf578287015190505b611be98582611894565b865550611c50565b601f198416611bff86611712565b5f5b82811015611c2657848901518255600182019150602085019450602081019050611c01565b86831015611c435784890151611c3f601f891682611878565b8355505b6001600288020188555050505b505050505050565b5f604082019050611c6b5f830185611584565b611c786020830184611584565b9392505050565b5f602082019050611c925f830184611593565b92915050565b611ca1816110ad565b82525050565b5f604082019050611cba5f830185611c98565b611cc76020830184611066565b939250505056fea26469706673582212206a3ee6be657bc6534169bd2793c2f20c404869005939b8a2c4c536574ebc809964736f6c63430008180033",
  "linkReferences": {},
  "deployedLinkReferences": {}
}